:020000040000FA
:060000000A128A110C280F
:10000800FE00030EF1000A08F2000A128A11992B69
:100018000A128A110F28F801F901FA018313343002
:10002800840044300A128A112D240A128A1183018D
:100038000A128A111F280A128A1132230A128A11F7
:10004800333083120313A2000030A3004308AA0030
:10005800AB012A08A4002B08A5000A128A116C22F9
:100068000A128A11831203132208AC002C08BF005D
:100078003330A2000030A3004308AA00AB012A08CD
:10008800F3002B08F4006430F5000030F6000A1283
:100098008A116E230A128A11740883120313A500A9
:1000A8007308A4000A128A116C220A128A11831298
:1000B80003132208AC002308AD003F08AE00AF01CF
:1000C8002E08F3002F08F4009C30F500FF30F600EE
:1000D8000A128A116E230A128A11730883120313F3
:1000E8002C07B20074080318740A2D07B3000A30ED
:1000F800A2000030A3003308A5003208A4000A12A9
:100108008A116C220A128A11831203132208AA0088
:100118002A08BE003330A2000030A3004308AA001A
:10012800AB012A08F3002B08F4006430F500003016
:10013800F6000A128A116E230A128A1174088312B1
:100148000313A5007308A4000A128A116C220A126C
:100158008A11831203132208AC002308AD009C30D7
:10016800AE002E08F3003F080A128A1118240A125A
:100178008A1183120313AF00F630B0003008F30081
:100188003E080A128A1118240A128A1183120313CC
:100198002F072C07B1003108BD003330A200003012
:1001A800A3004208AA00AB012A08A4002B08A50056
:1001B8000A128A116C220A128A1183120313220866
:1001C800AC002C08BC003330A2000030A300420869
:1001D800AA00AB012A08F3002B08F4006430F500EC
:1001E8000030F6000A128A116E230A128A11740866
:1001F80083120313A5007308A4000A128A116C2243
:100208000A128A11831203132208AC002308AD00D6
:100218003C08AE00AF012E08F3002F08F4009C3014
:10022800F500FF30F6000A128A116E230A128A11AD
:100238007308831203132C07B20074080318740A96
:100248002D07B3000A30A2000030A3003308A50030
:100258003208A4000A128A116C220A128A11831227
:1002680003132208AA002A08BB003330A20000307A
:10027800A3004208AA00AB012A08F3002B08F400E7
:100288006430F5000030F6000A128A116E230A1253
:100298008A11740883120313A5007308A4000A12B4
:1002A8008A116C220A128A11831203132208AC00E5
:1002B8002308AD009C30AE002E08F3003C080A125B
:1002C8008A1118240A128A1183120313AF00F63018
:1002D800B0003008F3003B080A128A1118240A12E9
:1002E8008A11831203132F072C07B1003108BA00B3
:1002F800B9010A303E02031C822983298729093063
:10030800AA002A08BE000A303D02031C8C298D2948
:1003180091290930AA002A08BD000A303B02031CB3
:10032800962997299B290930AA002A08BB000A3078
:100338003A02031CA029A129A5290930AA002A08E4
:10034800BA0006303F02031CAA29AB29AF290530A1
:10035800AA002A08BF0006303C02031CB429B529AC
:10036800B9290530AA002A08BF00F701F70A0230A8
:100378000A128A11C2230A128A11831203133F0830
:10038800303E0A128A1102240A128A11033083129B
:100398000313AA002A08F70002300A128A11C2239E
:1003A8000A128A11831203133E08303E0A128A1178
:1003B80002240A128A11043083120313AA002A089D
:1003C800F70002300A128A11C2230A128A11831214
:1003D80003133D08303E0A128A1102240A128A11B8
:1003E800073083120313AA002A08F70002300A1202
:1003F8008A11C2230A128A11831203133C08303E61
:100408000A128A1102240A128A110930831203136C
:10041800AA002A08F70002300A128A11C2230A1217
:100428008A11831203133B08303E0A128A110224F0
:100438000A128A110A3083120313AA002A08F70045
:1004480002300A128A11C2230A128A118312031374
:100458003A08303E0A128A1102240A128A110D3013
:1004680083120313AA002A08F70002300A128A111D
:10047800C2230A128A1130300A128A1102240A127F
:100488008A110F3083120313AA002A08F7000230DA
:100498000A128A11C2230A128A1130300A128A11EA
:1004A80002240A128A11103083120313AA002A08A0
:1004B800F70002300A128A11C2230A128A11303058
:1004C8000A128A1102240A128A110A128A110C28A5
:1004D80083120313A701A31F722A732A7A2AA20977
:1004E800A309A20A0319A30AA701A70AA51F7D2A1F
:1004F8007E2A872AA409A509A40A0319A50A013096
:10050800F7007708A706A801A90122082304031900
:100518008E2A8F2AC62AA601A60A9D2A0130031010
:10052800A20DA30DFF3E031D932A0130F7007708A3
:10053800A607A31FA02AA12A922A01300310A80DFA
:10054800A90DFF3E031DA22A23082502031DAE2A7A
:1005580022082402031CB12AB22AB92A2208A402BA
:100568002308031CA503A502281401300310A30CBB
:10057800A20CFF3E031DBA2A0130A602031DC52A9C
:10058800C62AA12A27080319CA2ACB2AD02AA809C9
:10059800A909A80A0319A90A2908A3002808A2007A
:1005A8000800273083120313A100F430A000A00B29
:1005B800DB2AA10BDB2A000000300A128A1135243D
:1005C8000A128A11343083120313A100F130A000FB
:1005D800A00BEC2AA10BEC2A30300A128A11E8236E
:1005E8000A128A110D3083120313A100FB30A000F8
:1005F800A00BFC2AA10BFC2A30300A128A11E8232E
:100608000A128A11693083120313A000A00B0A2B67
:100618000D2B30300A128A11E8230A128A11383059
:100628000A128A11E8230A128A1110300A128A1152
:10063800E8230A128A1101300A128A11E8230A12E1
:100648008A1106300A128A11E8230A128A110C301C
:100658000A128A11E8230A128A1108008316031362
:100668000F178F160F160F148316031789010330FF
:1006780088000330831603138500870188018901E8
:1006880083120313850187018801890183160313E7
:100698009F131F129F12831203131F083F398038BC
:1006A8009F00C3309F052130F700F70B592B8312A9
:1006B80003131F148B178B160B110B1783160313B9
:1006C8000C17831203130C130A128A11D5220A126B
:1006D8008A11080083120313A001A101731C752B52
:1006E800762B7E2B750883120313A0070318A10A23
:1006F8007608A10701300310F50DF60DFF3E031D26
:100708007F2B01300310F40CF30CFF3E031D862BE6
:1007180073087404031D912B922B722B83120313FD
:100728002108F4002008F3000800831203130C1FAB
:100738009E2B9F2BBB2B7903031DA32BA42BAB2B29
:100748001E08F0007008C3001F15F901B22B1E081F
:10075800F0007008C2001F11F901F90A0C132730C4
:10076800F000F00BB52BB82B831203139F147208FB
:100778008A00710E8300FE0E7E0E09008312031399
:10078800A1002103031DC92BCA2BD62B77087F3E56
:10079800A0002008A20022080A128A11E8230A12DF
:1007A8008A11E72B02302106031DDB2BDC2BE72BFC
:1007B8007708BF3EA0002008A20022080A128A116A
:1007C800E8230A128A110800F6008312031309109D
:1007D80076080A128A1135240A128A118312031321
:1007E80089141A30F500F830F400F40BF92BF50BE6
:1007F800F92B00008312031389100800F5008312F7
:100808000313091475080A128A1135240A128A1169
:100818008312031389141A30F400F40B112C00000E
:100828008312031389100800F600F501761C1D2CAD
:100838001E2C222C7308F4007408F5070310F30D1E
:100848000310F60C7608031D2A2C2B2C1A2C75087D
:10085800080064008001840A0406031900340406B1
:0E0868002E2CF300730883120313880008007F
:04400E00C430FF3F7C
:00000001FF
