:020000040000FA
:060000000A128A110C280F
:10000800FE00030EF1000A08F2000A128A11B12854
:100018000A128A110F28FA0183010A128A11E728A5
:100028002730F800F530F700F70B1828F80B1828D8
:1000380000300A128A11EF200A128A113430F800AF
:10004800F130F700F70B2628F80B26282B2830303C
:100058000A128A11CD200A128A110D30F800FB30DD
:10006800F700F70B3528F80B35283A2830300A12F4
:100078008A11CD200A128A116A30F700F70B42283C
:10008800000030300A128A11CD200A128A11383045
:100098000A128A11CD200A128A1110300A128A1106
:1000A800CD200A128A1101300A128A11CD200A12B3
:1000B8008A1106300A128A11CD200A128A110C30D0
:1000C8000A128A11CD200A128A1108008316031316
:1000D8000F178F160F160F14831603178901033095
:1000E800880003308316031385008701880189017E
:1000F800831203138501870188018901831603137D
:100108009F131F129F12831203131F083F39803851
:100118009F00C3309F052130F900F90B9128831205
:1001280003131F148B178B160B110B17831603134E
:100138000C17831203130C130A128A1114200A12C3
:100148008A11831603138112811101158114011478
:10015800EC3083120313810008000B1DB428B52866
:10016800BB28831203138801EB3081000B11831223
:1001780003130C1FC028C128C6281E08F0007008E9
:10018800FA000C1372088A00710E8300FE0E7E0EB0
:100198000900F60083120313091076080A128A115F
:1001A800EF200A128A118312031389141A30F500FA
:1001B800F830F400F40BDE28F50BDE28000083127B
:1001C8000313891008000A128A116A200A128A1178
:1001D8000A128A110C28F30073088312031388008B
:0201E80008000D
:04400E00C430FF3F7C
:00000001FF
