:020000040000FA
:060000000A128A110C280F
:10000800FE00030EF1000A08F2000A128A11E22A21
:100018000A128A110F28F801F901FA018313343002
:10002800840044300A128A1190260A128A11830128
:100038000A128A111F280A128A114B250A128A11DC
:100048001030831203134002031C2B282C2830285D
:10005800C001831603130C1633308312A20000303C
:10006800A3004308AA00AB012A08A4002B08A50096
:100078000A128A112A240A128A11831203132208E7
:10008800AC002C08BF003330A2000030A3004308A6
:10009800AA00AB012A08F3002B08F4006430F5002D
:1000A8000030F6000A128A118E250A128A11740885
:1000B80083120313A5007308A4000A128A112A24C4
:1000C8000A128A11831203132208AC002308AD0018
:1000D8003F08AE00AF012E08F3002F08F4009C3053
:1000E800F500FF30F6000A128A118E250A128A11CD
:1000F8007308831203132C07B20074080318740AD8
:100108002D07B3000A30A2000030A3003308A50071
:100118003208A4000A128A112A240A128A118312A8
:1001280003132208AA002A08BE003330A2000030B8
:10013800A3004308AA00AB012A08F3002B08F40027
:100148006430F5000030F6000A128A118E250A1272
:100158008A11740883120313A5007308A4000A12F5
:100168008A112A240A128A11831203132208AC0066
:100178002308AD009C30AE002E08F3003F080A1299
:100188008A117B260A128A1183120313AF00F630F4
:10019800B0003008F3003E080A128A117B260A12C2
:1001A8008A11831203132F072C07B1003108BD00F1
:1001B8003330A2000030A3004208AA00AB012A088D
:1001C800A4002B08A5000A128A112A240A128A11EF
:1001D800831203132208AC002C08BC003330A200A1
:1001E8000030A3004208AA00AB012A08F3002B083C
:1001F800F4006430F5000030F6000A128A118E25EA
:100208000A128A11740883120313A5007308A40044
:100218000A128A112A240A128A1183120313220845
:10022800AC002308AD003C08AE00AF012E08F30077
:100238002F08F4009C30F500FF30F6000A128A11EE
:100248008E250A128A117308831203132C07B20031
:1002580074080318740A2D07B3000A30A20000308E
:10026800A3003308A5003208A4000A128A112A2420
:100278000A128A11831203132208AA002A08BB0053
:100288003330A2000030A3004208AA00AB012A08BC
:10029800F3002B08F4006430F5000030F6000A1271
:1002A8008A118E250A128A11740883120313A50075
:1002B8007308A4000A128A112A240A128A118312C6
:1002C80003132208AC002308AD009C30AE002E08B2
:1002D800F3003C080A128A117B260A128A1183123B
:1002E8000313AF00F630B0003008F3003B080A12E1
:1002F8008A117B260A128A11831203132F072C07EF
:10030800B1003108BA006430A2000030A3004108EF
:10031800AA00AB012A08A4002B08A5000A128A111A
:100328002A240A128A11831203132208AC002C080B
:10033800B9006430F3000030F4004108AA00AB01B2
:100348002A08F5002B08F6000A128A11F0240A126E
:100358008A11730883120313AC002C08B8000A3002
:10036800A2000030A3003808AA00AB012A08A400A4
:100378002B08A5000A128A112A240A128A1183124C
:1003880003132208AC002C08B7000A30F300003031
:10039800F4004108AA00AB012A08F5002B08F60072
:1003A8000A128A11F0240A128A117308831203139D
:1003B800AC002C08B6000A303E02031CE429E529EB
:1003C800E9290930AA002A08BE000A303D02031CA8
:1003D800EE29EF29F3290930AA002A08BD000A30BE
:1003E8003B02031CF829F929FD290930AA002A082B
:1003F800BB000A303A02031C022A032A072A0930E2
:10040800AA002A08BA0006303F02031C0C2A0D2A4B
:10041800112A0530AA002A08BF0006303C02031C36
:10042800162A172A1B2A0530AA002A08BF000630F8
:100438004102031C202A212A252A0530AA002A085D
:10044800BF00F701F70A02300A128A11E2250A12E0
:100458008A11831203133F08303E0A128A113A2682
:100468000A128A11033083120313AA002A08F7001C
:1004780002300A128A11E2250A128A118312031322
:100488003E08303E0A128A113A260A128A110430AE
:1004980083120313AA002A08F70002300A128A11ED
:1004A800E2250A128A11831203133D08303E0A120C
:1004B8008A113A260A128A11073083120313AA00F6
:1004C8002A08F70002300A128A11E2250A128A1154
:1004D800831203133C08303E0A128A113A260A1284
:1004E8008A11093083120313AA002A08F700023080
:1004F8000A128A11E2250A128A11831203133B0891
:10050800303E0A128A113A260A128A110A308312D8
:100518000313AA002A08F70002300A128A11E225FA
:100528000A128A11831203133A08303E0A128A11FA
:100538003A260A128A110D3083120313AA002A08D8
:10054800F70002300A128A11E2250A128A11831270
:1005580003133908303E0A128A113A260A128A1100
:100568000E3083120313AA002A08F70002300A1279
:100578008A11E2250A128A11831203133708303EC2
:100588000A128A113A260A128A110F3083120313AB
:10059800AA002A08F70002300A128A11E2250A1274
:1005A8008A11831203133608303E0A128A113A263A
:1005B8000A128A1124280A128A110C280B1DE52A0E
:1005C800E62AED2A0130F000700883120313C007F1
:1005D8000B11831203130C1FF22AF32A0F2B780333
:1005E800031DF72AF82AFF2A1E08F0007008C30026
:1005F8001F15F801062B1E08F0007008C2001F1115
:10060800F801F80A0C132730F000F00B092B0C2B1B
:10061800831203139F148C1E122B132B342B851754
:100628000D301A06031D192B1A2B2F2B85132B306F
:100638007A06031D202B212B262B0130F000700891
:10064800C107342B2D307A06031D2B2B2C2B342B72
:100658000130C102342B1A08F0007008FA00342B5C
:100668000C1E372B382BBA2B7908031D3C2B3D2B3E
:10067800432B3F08303E9900F901F90AB92B790359
:10068800031D472B482B4F2B2E3099000230F000CA
:100698007008F900B92B02307906031D542B552B2D
:1006A8005D2B3E08303E99000330F0007008F900D9
:1006B800B92B03307906031D622B632B6B2B3D0886
:1006C800303E99000430F0007008F900B92B04306E
:1006D8007906031D702B712B782B2D30990005306E
:1006E800F0007008F900B92B05307906031D7D2B41
:1006F8007E2B862B3C08303E99000630F0007008AF
:10070800F900B92B06307906031D8B2B8C2B932B04
:100718002E3099000730F0007008F900B92B073027
:100728007906031D982B992BA12B3B08303E990085
:100738000830F0007008F900B92B08307906031D5D
:10074800A62BA72BAF2B3A08303E99000930F000B2
:100758007008F900B92B09307906031DB42BB52BA5
:10076800B92B0D309900F901B92B0C1272088A00C7
:10077800710E8300FE0E7E0E0900033083120313F0
:10078800A3002308F70001300A128A11E2250A1291
:100798008A110A300A128A11B9250A128A11F70138
:1007A800F70A02300A128A11E2250A128A11013068
:1007B8000A128A11B9250A128A1108308312031302
:1007C800A3002308F70001300A128A11E2250A1251
:1007D8008A110D300A128A11B9250A128A110730B6
:1007E80083120313A3002308F70002300A128A11A8
:1007F800E2250A128A1101300A128A11B9250A1251
:100808008A110D3083120313A3002308F700013067
:100818000A128A11E2250A128A1110300A128A1164
:10082800B9250A128A110D3083120313A300230875
:10083800F70002300A128A11E2250A128A110630DC
:100848000A128A11B9250A128A11080083120313A1
:10085800A701A31F302C312C382CA209A309A20A06
:100868000319A30AA701A70AA51F3B2C3C2C452C5A
:10087800A409A509A40A0319A50A0130F7007708F5
:10088800A706A801A9012208230403194C2C4D2C02
:10089800842CA601A60A5B2C01300310A20DA30D1F
:1008A800FF3E031D512C0130F7007708A607A31F50
:1008B8005E2C5F2C502C01300310A80DA90DFF3EB3
:1008C800031D602C23082502031D6C2C220824021A
:1008D800031C6F2C702C772C2208A4022308031CFD
:1008E800A503A502281401300310A30CA20CFF3E97
:1008F800031D782C0130A602031D832C842C5F2C49
:1009080027080319882C892C8E2CA809A909A80A5C
:100918000319A90A2908A3002808A20008002730FB
:1009280083120313A100F430A000A00B992CA10B93
:10093800992C000000300A128A1198260A128A118E
:10094800343083120313A100F130A000A00BAA2CAD
:10095800A10BAA2C30300A128A1108260A128A1111
:100968000D3083120313A100FB30A000A00BBA2C9A
:10097800A10BBA2C30300A128A1108260A128A11E1
:10098800693083120313A000A00BC82CCB2C303085
:100998000A128A1108260A128A1138300A128A1194
:1009A80008260A128A1110300A128A1108260A1219
:1009B8008A1101300A128A1108260A128A11063091
:1009C8000A128A1108260A128A110C300A128A1190
:1009D80008260A128A11080083120313A101F61FC0
:1009E800F62CF72CFE2CF509F609F50A0319F60A78
:1009F800A101A10AF41F012D022D072DF309F40905
:100A0800F30A0319F40A7308740403190C2D0D2D45
:100A18003C2DA001A00A1B2D01300310F30DF40D8D
:100A2800FF3E031D112D0130F7007708A007F41FC2
:100A38001E2D1F2D102D74087602031D252D7308F9
:100A48007502031C282D292D2F2D7308F502740813
:100A5800031CF603F60201300310F40CF30CFF3EFE
:100A6800031D302D0130A002031D3B2D3C2D1F2DF1
:100A780021080319402D412D462DF509F609F50ADF
:100A88000319F60A7608F4007508F30008008316BF
:100A980003130F178F160F160F14831603178901E8
:100AA80003308800033083160313850080308700E5
:100AB800880189018312031385018701880189014F
:100AC8000A128A1150260A128A118B178B160B11DB
:100AD8000B17831603130C17831203130C130A1234
:100AE8008A1193240A128A110A128A1166260A1296
:100AF8008A110A128A11C1230A128A118316031352
:100B0800811281110115811401140A308312031313
:100B18008100080083120313A001A101731C952D05
:100B2800962D9E2D750883120313A0070318A10A9A
:100B38007608A10701300310F50DF60DFF3E031DE1
:100B48009F2D01300310F40CF30CFF3E031DA62D5E
:100B580073087404031DB12DB22D922D8312031353
:100B68002108F4002008F300080083120313A200F0
:100B7800A001A101D42D2008220784000A128A119D
:100B880022260A128A110A128A113A260A128A1190
:100B9800013083120313A0070318A10A0030A1072C
:100BA8002008220784000A128A1122260A128A11B2
:100BB800003A031DE02DE12DBF2D08008312031319
:100BC800A1002103031DE92DEA2DF62D77087F3EAC
:100BD800A0002008A20022080A128A1108260A1278
:100BE8008A11072E02302106031DFB2DFC2D072E2E
:100BF8007708BF3EA0002008A20022080A128A1126
:100C080008260A128A110800F60083120313091035
:100C180076080A128A1198260A128A118312031377
:100C280089141A30F500F830F400F40B192EF50B7E
:100C3800192E0000831203138910080006308A0059
:100C48000408840A8207003430342E3430343034B7
:100C580000343034303430340034533431340034D8
:100C6800533432340034533433340034F5008312AF
:100C78000313091475080A128A1198260A128A1190
:100C88008312031389141A30F400F40B492E000060
:100C98008312031389100800831603139F131F126E
:100CA8009F12831203131F083F3980389F00C330F7
:100CB8009F051F142130F300F30B602E83120313DA
:100CC8009F140800831603131812181583160317A8
:100CD8008715CF308316031399009A0183120313E3
:100CE8009817181318168316031398160800F60099
:100CF800F501761C802E812E852E7308F400740869
:100D0800F5070310F30D0310F60C7608031D8D2E5E
:100D18008E2E7D2E7508080064008001840A040662
:100D2800031900340406912EF30073088312031389
:040D38008800080027
:04400E00D420FF3F7C
:00000001FF
