:020000040000FA
:060000000A128A110C280F
:10000800FE00030EF1000A08F2000A128A11902A73
:100018000A128A110F28F801F901FA018312031351
:10002800B401B501B601B701B801B901BA01BB0104
:10003800BC01BD01BE01BF01C001C101C2018301F4
:100048000A128A1127280A128A119E240A128A1172
:100058001030831203133F02031C33283428382836
:10006800BF01831603130C1633308312A20000302D
:10007800A3004208AA00AB012A08A4002B08A50087
:100088000A128A11D8230A128A118312031322082A
:10009800AC002C08BE003330A2000030A300420898
:1000A800AA00AB012A08F3002B08F4006430F5001D
:1000B8000030F6000A128A11E1240A128A11740823
:1000C80083120313A5007308A4000A128A11D82307
:1000D8000A128A11831203132208AC002308AD0008
:1000E8003E08AE00AF012E08F3002F08F4009C3044
:1000F800F500FF30F6000A128A11E1240A128A116B
:100108007308831203132C07B20074080318740AC7
:100118002D07B3000A30A2000030A3003308A50061
:100128003208A4000A128A11D8230A128A118312EB
:1001380003132208AA002A08BD003330A2000030A9
:10014800A3004208AA00AB012A08F3002B08F40018
:100158006430F5000030F6000A128A11E1240A1210
:100168008A11740883120313A5007308A4000A12E5
:100178008A11D8230A128A11831203132208AC00A9
:100188002308AD009C30AE002E08F3003E080A128A
:100198008A11B6250A128A1183120313AF00F630AA
:1001A800B0003008F3003D080A128A11B6250A1279
:1001B8008A11831203132F072C07B1003108BC00E2
:1001C8003330A2000030A3004108AA00AB012A087E
:1001D800A4002B08A5000A128A11D8230A128A1132
:1001E800831203132208AC002C08BB003330A20092
:1001F8000030A3004108AA00AB012A08F3002B082D
:10020800F4006430F5000030F6000A128A11E12487
:100218000A128A11740883120313A5007308A40034
:100228000A128A11D8230A128A1183120313220888
:10023800AC002308AD003B08AE00AF012E08F30068
:100248002F08F4009C30F500FF30F6000A128A11DE
:10025800E1240A128A117308831203132C07B200CF
:1002680074080318740A2D07B3000A30A20000307E
:10027800A3003308A5003208A4000A128A11D82363
:100288000A128A11831203132208AA002A08BA0044
:100298003330A2000030A3004108AA00AB012A08AD
:1002A800F3002B08F4006430F5000030F6000A1261
:1002B8008A11E1240A128A11740883120313A50013
:1002C8007308A4000A128A11D8230A128A11831209
:1002D80003132208AC002308AD009C30AE002E08A2
:1002E800F3003B080A128A11B6250A128A118312F2
:1002F8000313AF00F630B0003008F3003A080A12D2
:100308008A11B6250A128A11831203132F072C07A4
:10031800B1003108B9004008AA002A08B8000A301C
:100328003D02031C982999299D290930AA002A0809
:10033800BD000A303C02031CA229A329A7290930C1
:10034800AA002A08BC000A303A02031CAC29AD29CD
:10035800B1290930AA002A08BA000A303902031C58
:10036800B629B729BB290930AA002A08B9000630DE
:100378003E02031CC029C129C5290530AA002A0844
:10038800BE0006303B02031CCA29CB29CF29053001
:10039800AA002A08BE0006303802031CD429D52931
:1003A800D9290530AA002A08BE00F701F70A023049
:1003B8000A128A1135250A128A11831203133E087C
:1003C800303E0A128A1175250A128A1103308312E7
:1003D8000313AA002A08F70002300A128A113525E9
:1003E8000A128A11831203133D08303E0A128A1139
:1003F80075250A128A11043083120313AA002A08E9
:10040800F70002300A128A1135250A128A1183125E
:1004180003133C08303E0A128A1175250A128A1104
:10042800073083120313AA002A08F70002300A12C1
:100438008A1135250A128A11831203133B08303EAC
:100448000A128A1175250A128A11093083120313B8
:10045800AA002A08F70002300A128A1135250A1262
:100468008A11831203133A08303E0A128A1175253D
:100478000A128A110A3083120313AA002A08F70005
:1004880002300A128A1135250A128A1183120313BF
:100498003908303E0A128A1175250A128A110D3060
:1004A80083120313AA002A08F70002300A128A11DD
:1004B80035250A128A11831203133808303E0A12AE
:1004C8008A1175250A128A110F3083120313AA00A4
:1004D8002A08F70002300A128A1135250A128A11F1
:1004E80030300A128A1175250A128A1110308312C7
:1004F8000313AA002A08F70002300A128A113525C8
:100508000A128A1130300A128A1175250A128A11C4
:100518002C280A128A110C280B1D932A942A9B2A2C
:100528000130F000700883120313BF070B11831208
:1005380003130C1FA02AA12ABD2A7803031DA52A8C
:10054800A62AAD2A1E08F0007008C2001F15F8017F
:10055800B42A1E08F0007008C1001F11F801F80A3B
:100568000C132730F000F00BB72ABA2A83120313B2
:100578009F148C1EC02AC12AE22A85170D301A063C
:10058800031DC72AC82ADD2A85132B307A06031DC6
:10059800CE2ACF2AD42A0130F0007008C007E22AF8
:1005A8002D307A06031DD92ADA2AE22A0130C00240
:1005B800E22A1A08F0007008FA00E22A0C1EE52A5E
:1005C800E62A682B7908031DEA2AEB2AF12A3E0855
:1005D800303E9900F901F90A672B7903031DF52AC2
:1005E800F62AFD2A2E3099000230F0007008F90032
:1005F800672B02307906031D022B032B0B2B3D08BA
:10060800303E99000330F0007008F900672B033082
:100618007906031D102B112B192B3C08303E99002D
:100628000430F0007008F900672B04307906031DC8
:100638001E2B1F2B262B2D3099000530F00070083B
:10064800F900672B05307906031D2B2B2C2B342B37
:100658003B08303E99000630F0007008F900672B1F
:1006680006307906031D392B3A2B412B2E30990081
:100678000730F0007008F900672B07307906031D72
:10068800462B472B4F2B3A08303E99000830F00094
:100698007008F900672B08307906031D542B552B79
:1006A8005D2B3908303E99000930F0007008F900D8
:1006B800672B09307906031D622B632B672B0D30DE
:1006C8009900F901672B0C1272088A00710E8300D9
:1006D800FE0E7E0E0900033083120313A3002308C5
:1006E800F70001300A128A1135250A128A110630DC
:1006F8000A128A110C250A128A11F701F70A023028
:100708000A128A1135250A128A1101300A128A1131
:100718000C250A128A11083083120313A300230838
:10072800F70001300A128A1135250A128A11093098
:100738000A128A110C250A128A1107308312031330
:10074800A3002308F70002300A128A1135250A127D
:100758008A1101300A128A110C250A128A110E30E8
:1007680083120313A3002308F70001300A128A1129
:1007780035250A128A110C300A128A110C250A1220
:100788008A110D3083120313A3002308F7000230E7
:100798000A128A1135250A128A1101300A128A11A1
:1007A8000C250A128A11080083120313A701A31F3C
:1007B800DE2BDF2BE62BA209A309A20A0319A30A41
:1007C800A701A70AA51FE92BEA2BF32BA409A50962
:1007D800A40A0319A50A0130F7007708A706A8019B
:1007E800A901220823040319FA2BFB2B322CA6019A
:1007F800A60A092C01300310A20DA30DFF3E031D0C
:10080800FF2B0130F7007708A607A31F0C2C0D2C2F
:10081800FE2B01300310A80DA90DFF3E031D0E2C61
:1008280023082502031D1A2C22082402031C1D2C50
:100838001E2C252C2208A4022308031CA503A502AC
:10084800281401300310A30CA20CFF3E031D262C14
:100858000130A602031D312C322C0D2C2708031958
:10086800362C372C3C2CA809A909A80A0319A90A6F
:100878002908A3002808A2000800273083120313C0
:10088800A100F430A000A00B472CA10B472C0000BE
:1008980000300A128A11DF250A128A1134308312B5
:1008A8000313A100F130A000A00B582CA10B582C69
:1008B80030300A128A115B250A128A110D30831210
:1008C8000313A100FB30A000A00B682CA10B682C1F
:1008D80030300A128A115B250A128A116930831294
:1008E8000313A000A00B762C792C30300A128A1141
:1008F8005B250A128A1138300A128A115B250A12FE
:100908008A1110300A128A115B250A128A110130E5
:100918000A128A115B250A128A1106300A128A11F4
:100928005B250A128A110C300A128A115B250A12F9
:100938008A110800831603130F178F160F160F144A
:1009480083160317890103308800033083160313C5
:10095800850080308700880189018312031385018F
:100968008701880189010A128A118B250A128A11C6
:100978008B178B160B110B17831603130C17831287
:1009880003130C130A128A1141240A128A110A123B
:100998008A11A1250A128A110A128A116F230A12D2
:1009A8008A11831603138112811101158114011410
:1009B8000A30831203138100080083120313A00175
:1009C800A101731CE82CE92CF12C75088312031380
:1009D800A0070318A10A7608A10701300310F50D36
:1009E800F60DFF3E031DF22C01300310F40CF30C3E
:1009F800FF3E031DF92C73087404031D042D052DF7
:100A0800E52C831203132108F4002008F3000800E2
:100A180083120313A200A001A101272D2008220799
:100A280084000A128A11CB250A128A110A128A1125
:100A380075250A128A11013083120313A0070318BF
:100A4800A10A0030A1072008220784000A128A118F
:100A5800CB250A128A11003A031D332D342D122D8D
:100A6800080083120313A1002103031D3C2D3D2D13
:100A7800492D77087F3EA0002008A20022080A120C
:100A88008A115B250A128A115A2D02302106031D8C
:100A98004E2D4F2D5A2D7708BF3EA0002008A200EA
:100AA80022080A128A115B250A128A110800F60028
:100AB80083120313091076080A128A11DF250A1215
:100AC8008A118312031389141A30F500F830F400E0
:100AD800F40B6C2DF50B6C2D000083120313891099
:100AE8000800F50083120313091475080A128A1105
:100AF800DF250A128A118312031389141A30F400AD
:100B0800F40B842D00008312031389100800831648
:100B180003139F131F129F12831203131F083F39D9
:100B280080389F00C3309F051F142130F300F30B5A
:100B38009B2D831203139F140800831603131812A6
:100B48001815831603178715CF30831603139900DA
:100B58009A01831203139817181318168316031390
:100B680098160800F600F501761CBB2DBC2DC02D8B
:100B78007308F4007408F5070310F30D0310F60C5E
:100B88007608031DC82DC92DB82D75080800053035
:100B98008A000408840A8207003430342E34303442
:100BA8003034003453343134003453343234003464
:100BB800533433340034F30073088312031388006A
:020BC800080023
:04400E00D420FF3F7C
:00000001FF
